:020000040800F2
:10000000A85A00202D030008EF450008FD42000813
:10001000ED450008F51A0008F54D00080000000045
:100020000000000000000000000000006D02000859
:10003000111B000800000000C90200081149000857
:100040004703000847030008470300084703000868
:100050004703000847030008470300084703000858
:100060004703000847030008470300084703000848
:100070004703000847030008470300084703000838
:10008000470300084703000847030008000000007A
:10009000000000000000000000000000470300080E
:1000A0004703000847030008470300084703000808
:1000B000E149000847030008470300084703000818
:1000C00047030008470300084703000847030008E8
:1000D000CD460008DD4D0008470300080000000081
:1000E000470300084703000847030008000000001A
:1000F00000000000000000000000000047030008AE
:1001000000000000470300084703000847030008F9
:1001100000000000000000000000000000000000DF
:100120004703000847030008470300084703000887
:10013000470300080000000000000000000000006D
:10014000000000000000000000000000470300085D
:10015000470300084703000847030008E94D00086B
:1001600047030008470300080000000000000000EB
:10017000000000000000000000000000000000007F
:10018000000000004703000800000000000000001D
:10019000470300084703000800F002F800F056F893
:1001A0000AA090E8000C82448344AAF10107DA45D2
:1001B00001D100F04BF8AFF2090EBAE80F0013F0CE
:1001C000010F18BFFB1A43F001031847B87900006C
:1001D000D8790000103A24BF78C878C1FAD85207FD
:1001E00024BF30C830C144BF04680C6070470000B1
:1001F0000023002400250026103A28BF78C1FBD830
:10020000520728BF30C148BF0B607047662907F00E
:10021000FB83652907F0F883642900F0CB817829F6
:1002200000F00482002070471FB507F0E8FB9DE84E
:10023000030000F0EFFB00F0B5FE040000200021F9
:1002400007F092F8E0601FBD10B510BD00F0C8FFC8
:100250001146FFF7E9FF04F071FF00F0E6FF03B479
:10026000FFF7F2FF03BC01F057F800002C4B1968B0
:100270000868B0E8F04F80F30988BFF36F8F4FF044
:10028000000080F3118870470000000008480068F3
:10029000006880F308884FF0000080F3148862B68D
:1002A00061B6BFF34F8FBFF36F8F00DF00BF00BF9A
:1002B00008ED00E0DFF80C00016841F47001016016
:1002C000704700BF88ED00E0EFF30980BFF36F8F48
:1002D000134B1A681EF0100F08BF20ED108A20E99A
:1002E000F04F106009B44FF0500080F31188BFF355
:1002F0004F8FBFF36F8F06F0C5FA4FF0000080F309
:10030000118809BC19680868B0E8F04F1EF0100F9A
:1003100008BFB0EC108A80F30988BFF36F8F704775
:100320005C000020EFF3058070470000094880471B
:1003300009480047FEE7FEE7FEE7FEE7FEE7FEE7C7
:10034000FEE7FEE7FEE7FEE704480549054A064BDF
:1003500070470000D149000899010008A84A002010
:10036000A85A0020A8560020A856002070B50646BE
:1003700000F034FB056806F10B0020F00704B442DE
:100380009CBF002070BD2B466A68BAB11068A042BD
:1003900010D304F1080188423CBF5068586007D36D
:1003A0005168101941601168091B016058601460A0
:1003B000101D70BD13465268002AE7D12146284619
:1003C00000F014FB0028DED170BD70B50446051F97
:1003D00000F004FB0068002C14BF446870BD002CC2
:1003E00018BFAC423CBF20466468F8D301680A18C5
:1003F000AA4218BF456003D12A680546114401602E
:1004000028684119A1421CBF6C6070BD61686960B9
:1004100021680844286070BD53EA020C00F069802E
:100420002DE9F04B4FF00006002B1FBFB3FA83F508
:1004300003FA05F424FA05F65E4012BF1643B2FA39
:1004400082F502FA05F4C5F120051EBF22FA05FC6B
:1004500044EA0C04203556EA044C4FEA144418BF11
:10046000641C4FF000084FF00009904271EB030C40
:1004700039D3002919BFB1FA81F701FA07F6B0FAAA
:1004800080F700FA07F6C7F120071EBF20FA07FC25
:1004900046EA0C062037B6FBF4FCA7EB0507103F35
:1004A00007F01F0BCBF120060CFA0BFB2CFA06F61B
:1004B00044BFB3460026202FA4BF5E464FF0000B7A
:1004C0005BEA060C08BF4FF0010B19EB0B09ABFB05
:1004D000027C48EB0608C01B06FB02CC0BFB03CCDE
:1004E00071EB0C01C1E70B46024641464846BDE8A8
:1004F000F08B13B54FF000004FF00001AFF3008018
:10050000BDE81C40704700000FB41CB5074B06AA9D
:100510007B4469460090059800F01FFD0020694665
:1005200000F02EFD1CBC5DF814FB00006D0A0000FD
:100530000FB41CB50C0007AA009001D02044401E47
:10054000074B7B4469460190069800F006FD002C9D
:1005500003D06946002000F013FD1CBC5DF814FBBD
:10056000450A000070B5044685690068C10601D5DA
:10057000302600E02026C00707D070BDD4E9012155
:1005800030469047206A401C20626D1EF6D570BD33
:1005900070B5044685690078C00707D170BDD4E9FD
:1005A000012120209047206A401C20626D1EF6D554
:1005B00070BD00002DE9F041064600241068752941
:1005C000314616A510D0AFF30080002802DA404271
:1005D00013A507E031688A0701D512A502E0490793
:1005E00004D511A5012401E0AFF3008000210A2207
:1005F00006F1240709E0B0FBF2FCB0FBF2F302FBCA
:100600001C00303078541846491C0028F3D123468A
:100610002A463046BDE8F04100F032BA0000000042
:100620002D0000002B0000002000000070B50446E3
:100630000D4621461068AFF300802188090502D5D8
:100640000F4A7A4402E00E4A7A440E32002104F145
:10065000240305E000F00F060009965D5E54491C76
:100660000028F7D120780023000704D5702D02D090
:1006700009B1022311322046BDE8704000F000BAF3
:100680004A7400002DE9F05F894604464FF0000AE5
:10069000DFF824B1FB44C0F820A02046E168884779
:1006A00000287DD0252806D0D4E901219047206A72
:1006B000401C2062F1E700255F462046E16888473C
:1006C0002028064607DB312E05D2B81910F8200C79
:1006D00008B10543F1E7A80701D525F00405C4F8E2
:1006E0001CA00027C4F818A02A2E09D0304604F018
:1006F00043FC38B304EB8708303EC8F8186019E0B3
:1007000059F8041B204604EB87029161E168884791
:10071000012F064618D1E069002820DA25F02005CF
:100720001DE0D8F8180000EB800006EB40003038E0
:10073000C8F818002046E1688847064604F01CFC0B
:100740000028EED1012F0AD02E2E08D12046E168D4
:1007500088477F1C0646022F45F02005C4DBA069B0
:10076000002803DA404245F00105A061E80701D006
:1007700025F01005A6B1A6F14100192802D82036AF
:1007800045F400654A463146204625604D46FFF750
:100790003DFD60B1012807D0ED1D25F0070000E008
:1007A00007E000F1080978E705F1040975E730462C
:1007B0007AE7206ABDE8F09F20740000401ECAB2AC
:1007C00010F8011F8A4202D00029F9D10020704799
:1007D00040EA0103024630B59B0710D14FF00134C7
:1007E00000E008C208C91D1B9D4315EAC41FF8D0CC
:1007F00013F0FF0102F8011B0DD01B0AF8E711F8F6
:10080000013B002B02F8013B05D011F8013B002B06
:1008100002F8013BF3D130BD10B5431C02E010F8E3
:10082000011B71B18107FAD14FF0013202C88C1A55
:100830008C4314EAC211F9D0C01A0A0603D0C01EB4
:1008400010BDC01A10BD0A0401D0801E10BD0902DF
:10085000FCD0401E10BD032A40F2308010F0030C83
:1008600000F0158011F8013BBCF1020F624498BF03
:1008700011F801CB00F8013B38BF11F8013BA2F1A0
:10088000040298BF00F801CB38BF00F8013B11F01B
:10089000030300F02580083AC0F0088051F8043BBB
:1008A000083A51F804CBA0E80810F5E7121D5CBF28
:1008B00051F8043B40F8043BAFF30080D20724BF5B
:1008C00011F8013B11F801CB48BF11F8012B24BFEF
:1008D00000F8013B00F801CB48BF00F8012B70473E
:1008E00010B5203AC0F00B80B1E81850203AA0E8CB
:1008F0001850B1E81850A0E81850BFF4F5AF5FEAFF
:10090000027C24BFB1E81850A0E8185044BF18C9B1
:1009100018C0BDE810405FEA827C24BF51F8043B58
:1009200040F8043B08BF7047D20728BF31F8023BAC
:1009300048BF11F8012B28BF20F8023B48BF00F840
:10094000012B70474FF000020429C0F0128010F014
:10095000030C00F01B80CCF1040CBCF1020F18BF9B
:1009600000F8012BA8BF20F8022BA1EB0C0100F02E
:100970000DB85FEAC17C24BF00F8012B00F8012B01
:1009800048BF00F8012B70474FF0000200B5134636
:1009900094469646203922BFA0E80C50A0E80C509F
:1009A000B1F12001BFF4F7AF090728BFA0E80C5050
:1009B00048BF0CC05DF804EB890028BF40F8042B49
:1009C00008BF704748BF20F8022B11F0804F18BFB6
:1009D00000F8012B70477047704770470048704718
:1009E000504A0020704770477047704738B504463A
:1009F0000A4600206946AFF30080002808BF38BDD2
:100A000002460099204600F0D1FA012038BD0120AD
:100A100000F0DEBBF8B5AFF30080054600200C46C1
:100A2000102000BF0646A819A0420DD932466946DB
:100A30000020AFF30080070008BF00F0C9FB00985A
:100A4000A04218BF0546C419FFF7C8FF0560074656
:100A5000F01D20F007004619284600F00AF8B442BD
:100A600008BFF8BDA21B31463868BDE8F84000F069
:100A70009DBA00210160C0E9011070471020704745
:100A80002DE9F0470D4699469246044600F12408A8
:100A90000168880604D5E06921F01001216000E0BA
:100AA0000120A84201DD471B00E00027A1697A1957
:100AB00002EB0900081AA0612078C00602D4204683
:100AC000FFF750FD002608E0D4E901211AF80600DE
:100AD0009047206A401C761C20624E45F4DB20784B
:100AE000C0060AD52046FFF73DFD06E0D4E9012106
:100AF00030209047206A401C2062381EA7F1010771
:100B0000F4DC07E0D4E9012118F805009047206AD9
:100B1000401C2062281EA5F10105F3DC2046FFF7EA
:100B200037FD2078000602D50220BDE8F0870120BD
:100B3000FBE770472DE9FF4F0C461E464FF0FF378D
:100B40008BB0D2E90001DDF860800A908A46C1F3DB
:100B50000A5505B93D46002108464FF00000BAF19C
:100B6000000F00F4400005DA00EB80004FF4400174
:100B700001EA50004FEA9059B9F1010F00DDB94682
:100B80000A9850EA4A000ED044F61050A5F2FF35FC
:100B900045432F14B8F1000F1ED07542291E1EDDEB
:100BA000C9F100021CE0B8F1010F4FF0000001D0C4
:100BB000302103E0F24305E02154401CB042FBDB4E
:100BC00030460022002121540B99C1F80880C1E968
:100BD00000200FB0BDE8F08FBD1B6D1CDEE74A465C
:100BE00000DA694206A800F081FA06AB93E8070034
:100BF00003AB83E8070050460A9900F0B3FB8DE889
:100C00000700A0F500501F3800900398002D0ADD62
:100C100042F21F014A460844002303A90390684694
:100C200000F01CFE09E0A0F500504A461F380023E2
:100C300003A90390684600F026FE8DE80700000433
:100C4000000C03D04FF0FF30410800E01046B8F12F
:100C5000000F03D00022009215461EE0751E05D439
:100C600000F0BEF9303262556D1EF9D5B34601224F
:100C7000084302D000227F1C04E02078302801D1F4
:100C800000227F1E002A099784D01DE0112D07DA6B
:100C900000F0A6F9303262556D1C50EA0102F5D120
:100CA000084302D00098C8B10EE00021681E05E09C
:100CB000235C625C63542254401E491C8142F7DB72
:100CC000AB46A81B401E0990002004F80B000B98AF
:100CD000099AC0F80880C0E9002B7AE711264FF086
:100CE000000857E72DE9F04F88460446D21D22F050
:100CF000070191B0D1E90001CDE90A0104F07BF8C8
:100D000002460B98C00F01D02D2007E02068810714
:100D100001D52B2002E0202101EAC000032A09901E
:100D200001D0072A05DB03464146204600F09EF924
:100D30000BE12078800601D5E06900E00620B8F1DB
:100D4000650F814606D0B8F1660F18D0B8F1670F6D
:100D500070D131E00020B9F1110F009001DB1123B7
:100D600001E009F101030AAA01A90CA8FFF7E2FEBC
:100D7000DDE90C70002609F10105834647E00120FA
:100D80004B4600904FF000470AAA01A90CA8FFF7B4
:100D9000D1FEDDE90DB00C995D46002610B909F1D0
:100DA00001000D18B9EB050003D4C0F1FF3609F1BD
:100DB0000105A5EB09002BE0B9F1010F01DA4FF0B5
:100DC00001090020B9F1110F0090484601DD1123FF
:100DD00000E003460AAA01A90CA8FFF7ABFEDDE973
:100DE0000C704D4600268346207800070AD4AB4598
:100DF00000DA5D4601A8012D04DD411911F8011C3E
:100E0000302907D04F4502DA17F1040F04DA012028
:100E100082460FE06D1EEEE7002F02DCED1B3E4424
:100E200003E0781CA84200DD7D1CB81B00F1010A1C
:100E30004FF000472078000703D4AA4501DB4FF0AC
:100E4000FF3A0021B7F1004F0DF143088DF8431030
:100E500024D002202B23002F01DA7F422D230A21E8
:100E6000021EA0F1010000DC5FB197FBF1FC97FBD3
:100E7000F1F201FB1C7C17460CF1300C08F801CD97
:100E8000EEE7A8F1010003702188090501D545218D
:100E900000E06521A0F1010800F8011C09980FA9E4
:100EA000A1EB0807FF1D00B10120411901EBEA7019
:100EB000A1693844081A401EA0612078C00602D4F7
:100EC0002046FFF74FFB099828B1D4E9012190474C
:100ED000206A401C20622078C00622D52046FFF7F9
:100EE00041FB1EE0002E04DBB34502DD01A8805D5E
:100EF00000E03020D4E901219047206A401C2062A4
:100F0000761CAAF101005FEA000A0AD100F04AF853
:100F1000C0680168405CD4E901219047206A401C08
:100F20002062281EA5F10105DCDC07E0D4E90121DF
:100F300018F8010B9047206A401C2062381EA7F168
:100F40000107F3DC2046FFF723FB032011B041E645
:100F500001694A1C02610878704700B58FB0CDE97D
:100F600001310021059105497944CDE9031011466D
:100F70006846FFF787FB0FB000BD0000E5FFFFFFED
:100F80000A6802F8010B0A607047D1E900239A420F
:100F900002D2531C0B60107070470000004870476D
:100FA000484A002000487047684A002003464068CD
:100FB0008C46002818BF88423CBF03464068F8D3DF
:100FC00018681844884207D00CF1030020F007008D
:100FD000001D411A521A0146081D0A60FFF7F5B9B3
:100FE00030B5B0F10A024FEA900E71F100034EEAFB
:100FF000817EB0EB0E0061EB91014FEA101E4EEACC
:10100000017E10EB0E0041EB11114FEA102E4EEA5B
:10101000016E10EB0E0041EB11214FEA104E4EEA2B
:10102000014E10EB0E0041EB1141401841F100015F
:101030004FEAD00040EA41704FEAD10110EB800541
:101040004FEA810444EA907444EB01046D1944EBC7
:101050000404521BA3414FF0000348BF0A3200D5DD
:1010600030BD401C41F1000130BD00002DE9F041D0
:101070001F46044603260168072A01F4006004DBCA
:1010800008B116A505E016A503E008B115A500E016
:1010900015A521F010002060A069C01EA0610FB14D
:1010A000401EA0612046FFF75DFA4FB1D4E901214F
:1010B00038469047206A401C2062C01C206206E02F
:1010C000206AFAE7D4E9012115F8010B9047761E52
:1010D000F8D22046FFF75CFABDE8F0814E414E00A1
:1010E0006E616E00494E4600696E66002DE9F0475C
:1010F000814616468AB0354878440DC88DE80D0003
:1011000032487844801C03AC0DC884E80D0041F6D9
:101110009B300844372190FBF1F290FBF1F5A5F1EB
:10112000800501FB12041B3C02D56442012000E053
:101130000020DFF898A080460027FA44AAF1BE0AF2
:101140000EE0E0070AD03246684607EB470101236C
:101150000AEB810100F097FB8DE8070064107F1C0B
:10116000002CEED1194F7F44AE3F19E0E80715D0AF
:1011700007EB04100DF1180A90E80E008AE80E0043
:10118000C068F04201D1981908903246012306A99F
:1011900003A800F078FB03AB83E807006D10641C24
:1011A000002DE3D14FF0010332466946B8F1000F3C
:1011B00003A802D000F052FB01E000F064FBC9E993
:1011C0000001C9F808200AB0BDE8F0874C6A0000A9
:1011D00010B500F039F8BDE8104000F02FB87047A6
:1011E0007546FFF7DBFEAE4605006946534620F024
:1011F0000700854618B020B5FFF7A6F8BDE82040E7
:101200004FF000064FF000074FF000084FF0000BC2
:1012100021F00701AC46ACE8C009ACE8C009ACE875
:10122000C009ACE8C0098D46704710B50446AFF35D
:1012300000802046BDE81040FFF711B8002801D01B
:1012400000F06AB87047000010B5012805D00021F1
:1012500003A000F067F8012010BD09A1F8E7000025
:1012600053494752544D454D3A204F7574206F668F
:101270002068656170206D656D6F727900000000F7
:101280003A2048656170206D656D6F727920636FDB
:1012900072727570746564004FF0013C50F8042B55
:1012A00051F8043B9A4221D1A2EB0C03934313EA79
:1012B000CC1317D150F8042B51F8043B9A4215D1A6
:1012C000A2EB0C03934313EACC130BD150F8042B7D
:1012D00051F8043B9A4209D1A2EB0C03934313EA61
:1012E000CC13DBD04FF00000704700BFD01A01BA1A
:1012F000B1FA81F101F0180122FA01F0CB40C1F1FD
:101300002001DBB2C0B2C01A2CFA01F3D11A91430A
:1013100011EAC311E6D1704701491820ABBEFEE7C0
:101320002600020070B505460C460A2000E06D1C40
:1013300000F011F835B128780028F8D102E0641CDB
:1013400000F009F814B120780028F8D1BDE8704009
:101350000A20AFF3008008B569468DF8000003202D
:10136000ABBE08BD5FEA400C08BF91F0000F4FEA2A
:101370008C234FEAC12243EA51514FEA1C5018BF57
:1013800000F5F0404FEA300018BF41F000415FEA3D
:101390006C5C00F02980BCF1FF3F08BF40F080404A
:1013A0007047130C06BF12044FF0100C4FF0000CE6
:1013B000130E04BF12020CF1080C130F04BF12012C
:1013C0000CF1040C930F04BF92000CF1020CD30F2C
:1013D00004BF52000CF1010C11464FF00002A0F1C5
:1013E0001F00A0EB0C00704711F0004F08BF7047C2
:1013F00031F000413FF4D5AF0B0C06BF09044FF0AC
:10140000100C4FF0000C0B0E04BF09020CF1080C7D
:101410000B0F04BF09010CF1040C8B0F04BF8900F2
:101420000CF1020CCB0F04BF49000CF1010CCCF104
:101430002003A0EB0C0022FA03F302FA0CF241EABB
:10144000030100F10100704720F07F4C80EA0300A7
:1014500023F07F47ACEB070303F57C5300F000401B
:1014600003F1FF032DE980494FEA154B09B44FEA18
:10147000144325EA0B4E24EA03480FF2042606EB38
:10148000132749083E785FEA320203FB0667C7F577
:10149000000707FB06F64FEA54374FEAD64606F137
:1014A000020607FB066CCCF1005C4FEA1C472CEAF5
:1014B000074C07FB06F40CFB06F504EB15464FEA58
:1014C000961634BF00204FF000404FEAD13706FB9C
:1014D00007FC4FEA1C4C0CFB0BF7D21B03FB0CF771
:1014E00061EB07010CFB0EF7B0EB074072EB174204
:1014F0000CFB08F734BFA2EB0742B2EB074261EBEB
:1015000017414FEA0C444FEA910706FB07FC4FEAEC
:101510001C4C0CFB0BF7B0EBC74072EB573203FBD4
:101520000CF734BFA2EBC742B2EBC74261EB5731B5
:101530000CFB0EF7B0EBC70072EB57720CFB08F711
:1015400034BFA2EBC702B2EBC70261EB5771039F36
:101550004FEA816141EA921104EBCC044FEAD137A2
:101560004FEA826206FB07FC42EA90124FEA806073
:101570004FEA1C4C0CFB0BF7D21B03FB0CF761EB87
:1015800007010CFB0EF7B0EB074072EB17420CFBA8
:1015900008F734BFA2EB0742B2EB074261EB1741F9
:1015A0004FEA8C554FEA910704EB9C2406FB07FC9D
:1015B0004FEA1C4C0CFB0BF7B0EBC74072EB5732F9
:1015C00003FB0CF734BFA2EBC742B2EBC74261EB9F
:1015D00057310CFB0EF7B0EBC70072EB57720CFBE8
:1015E00008F734BFA2EBC702B2EBC70261EB577139
:1015F00015EB4C254FEA816141EA92114FEA826274
:101600004FEAD13742EA901206FB07FC44F100048E
:101610004FEA80604FEA1C4C0CFB0BF7D21B03FB1C
:101620000CF761EB07010CFB0EF7B0EB074072EB18
:1016300017420CFB08F734BFA2EB0742B2EB07429C
:1016400061EB174115EB1C154FEA813141EA9241DC
:101650004FEA823242EA90424FEA80304FEA0C76FB
:1016600044F1000448EA03434EEA0B484FF0000EF1
:10167000B2EB080C71EB030724BF624639464EEB10
:101680000E0E4FF0000B0018524149414BEB0B0B73
:10169000B2EB080C71EB03077BF1000B24BF624631
:1016A00039464EEB0E0E4FF0000B001852414941E7
:1016B0004BEB0B0BB2EB080C71EB03077BF1000B50
:1016C00024BF624639464EEB0E0E51EA020718BFA0
:1016D00046F0010616EB0E7655F1000254F10001BA
:1016E00003D5BDE88901BDE80088BDE88901BDE8F2
:1016F0000048B619524141EB0101A3F101037047C3
:1017000080807F7E7D7C7B7A79787776767574733E
:10171000727171706F6E6E6D6C6C6B6A6A696868FD
:10172000676666656464636362616160605F5F5E93
:101730005E5D5D5C5C5B5B5A5A5959585857575609
:10174000565555555454535352525251515050506E
:101750004F4F4F4E4E4D4D4D4C4C4C4B4B4B4A4AC0
:101760004A49494948484847474747464646454504
:10177000454444444443434343424242424141413D
:10178000002B9C4630D477002BD01CB54FEA37078E
:1017900003B44FF010004FF01001BAF1000F06D063
:1017A000BCF1000FDCBF40F0080040F008014FF032
:1017B00000000FBCBDE810400BF1010BBBF1010FA5
:1017C00008BF5FEA170722BF12F1010211F1010100
:1017D0004FF0004143F1000300F0004043EA0000F5
:1017E0007047F9D35708D0E746EA064613F1400F91
:1017F0004FEA16461FDD13F1200FDFBF16430A46DE
:10180000002120335B42BED0C3F1200746EA0646E2
:1018100002FA07F74FEA164646EA0706C3F1200721
:1018200022FA03F201FA07F721FA03F14FF000035D
:1018300042EA0702A7E746EA020646EA06464FEAF8
:10184000164646EA0106BCBF46EA0646360C4FF08D
:1018500000034FF000024FF0000194E72DE9804CA7
:101860009A46934670B491E8380007C831EA400CB4
:1018700048BF34EA430C03D5FFF7E6FDFFF780FFCE
:10188000F0BCBDE8008C2DE9804C9A46934670B4BC
:1018900091E8380007C810F0804F08BF13F0804F60
:1018A00003D100F005F8FFF76BFFF0BCBDE8008C3A
:1018B00020F07F4780EA030023F07F4C07EB0C0306
:1018C000A3F57C5300F00040A3F1FE0392F0000F5B
:1018D00000F0B38095F0000F00F077802DE901490A
:1018E0004FEA11404FEA144621EA004800FB06FC8B
:1018F00024EA064708FB06F607FB08F800FB07F793
:1019000018EB06484CEB164C4FEA124B18EB074805
:101910004FEA15464CEB174022EA0B4E0BFB06FC38
:1019200025EA06470EFB06F607FB0EFE0BFB07F744
:101930001EEB064E4CEB164C4FF000061EEB074E0E
:101940004CEB174B18EB0B0840F1000018EB0E0B9B
:1019500058EB000840F100008F1A4FF000013CBF27
:10196000C943661B14BFB5EB040C00213CBFC9433F
:10197000F61B4FEA17444EEA8E0E27EA04454FEA5B
:101980001C4704FB07622CEA074C05FB07F70CFB1E
:1019900005F604FB0CFC16EB074642EB174216EB70
:1019A0000C4642EB1C421BEB060658EB020241417F
:1019B00046EA9E0601D5BDE80189B619524141EBC0
:1019C0000101A3F10103BDE801894FEA14454FEA83
:1019D000114724EA054621EA074C05FB07F406FBFC
:1019E00007F70CFB06F105FB0CFC11EB074144EB80
:1019F00017444FEA124711EB0C4144EB1C4422EA16
:101A0000074C05FB07F206FB07F70CFB06F605FB88
:101A10000CFC16EB074642EB174216EB0C4642EB6A
:101A20001C456A1854F1000148BF7047B61952416D
:101A300041EB0101A3F10103704795F0000F37D08E
:101A40004FEA11424FEA144721EA024624EA074CC2
:101A500002FB07F106FB07F70CFB06F402FB0CFC8C
:101A600014EB074441EB17414FEA154714EB0C44C4
:101A700041EB1C4125EA074C02FB07F506FB07F783
:101A80000CFB06F602FB0CFC16EB074645EB174574
:101A900016EB0C4645EB1C42121951F1000148BFF0
:101AA0007047B619524141EB0101A3F101037047A0
:101AB0004FEA14454FEA114724EA054621EA074C4C
:101AC00005FB07F106FB07F70CFB06F24FF00006DB
:101AD00005FB0CFC12EB074241EB174112EB0C42E9
:101AE00051EB1C4148BF7047921841EB0101A3F133
:101AF00001037047FEE7000004490868401C0860C5
:101B00003B2801DD00200860704700000000002035
:101B1000704772B6FEE72DE9F0410446876D00F08C
:101B2000E3F9064694F835000025022806D0802007
:101B3000606584F834500120BDE8F08120680168B8
:101B400021F0160101602068416921F080014161A6
:101B5000206C08B9A06C20B12068016821F0080150
:101B600001602068016821F0010101600CE000F0D3
:101B7000BBF9801B052807D920206065032084F865
:101B8000350084F83450D7E720680068C007EED1EC
:101B900094F85C103F208840B860012084F835003C
:101BA00084F834500020C7E790F83510022903D09C
:101BB0008021416501207047052180F835100068BB
:101BC000016821F001010160002070472DE9F84F04
:101BD000DFF848B20D460446584512D0904884427A
:101BE0000FD0904884420CD08F48844209D08F484F
:101BF000844206D08E48844203D0AC218DA003F0ED
:101C0000C2F928680104090C01D0000C03D0AD21F1
:101C100088A003F0B8F96868F8B101281DD0112830
:101C20001BD0022819D0122817D0B0F5881F14D065
:101C3000B0F5041F11D0B0F5441F0ED0B0F5901FC1
:101C40000BD0B0F5081F08D0B0F5481F05D0032809
:101C500003D0AE2177A003F096F900264FF0010AD9
:101C60004FF003090AFA06F02F68804607404745FF
:101C70007ED1287900F00300012801D002281DD16F
:101C8000E86848B1012807D0022805D0032803D00E
:101C9000C02168A003F077F9A068720009FA02F188
:101CA0008843E96891400143A1606168287921EA8D
:101CB0000801C0F30010B040084360602879C043B9
:101CC000800712D0A86838B1012805D0022803D0B7
:101CD000D12158A003F057F9E068720009FA02F127
:101CE0008843A96891400143E160287900F003002E
:101CF000022828D12869C8B1092817D0012815D091
:101D0000022813D0042811D005280FD006280DD0A2
:101D100007280BD0082809D00A2807D00C2805D09E
:101D20000F2803D0DE2143A003F02DF9F00804EBC7
:101D30008002106A7107CB0E0F21994088432969F0
:101D40009940014311622168720009FA02F081434F
:101D5000287900F00300904008432060686810F480
:101D6000403F55D04248016841F48041016000E0A5
:101D70004EE0006826F0030100F4804000903D48EA
:101D80000A18D2F80808B1070B0F0F2199408843B1
:101D90005C4501D1002114E021498C4201D101218F
:101DA0000FE020498C4201D102210AE01E498C42F9
:101DB00001D1032105E01D498C4201D1042100E03D
:101DC000072199400143C2F808182B4908686A683E
:101DD000B843D20200D5384308602749091D086876
:101DE0006A68B843920200D5384308602249091F47
:101DF00008686A68B843920300D5384308601E49F2
:101E0000083908686A68B843D20300D538430860C7
:101E1000761C102EFFF426AFBDE8F88F00000240BC
:101E20000004024000080240000C02400010024082
:101E3000001C02402E2E2F447269766572732F5358
:101E4000544D3332463478785F48414C5F44726970
:101E50007665722F5372632F73746D3332663478E4
:101E6000785F68616C5F6770696F2E6300000000C7
:101E70004438024000300140083C014070B515462E
:101E80000C00064604D140F29D1108A003F07BF837
:101E900045B1012D04D04FF4CF7104A003F073F8C5
:101EA000B46170BD2004B06170BD00002E2E2F44BF
:101EB0007269766572732F53544D33324634787895
:101EC0005F48414C5F4472697665722F5372632F8D
:101ED00073746D3332663478785F68616C5F6770F5
:101EE000696F2E63000000000148806870470000A1
:101EF0004C00002070B504007DD08A4920688842DB
:101F00000AD08949884207D08849884204D040F2E3
:101F1000C91187A003F037F860689349401E8842D2
:101F200004D94FF4E57182A003F02DF8A0684FF4B6
:101F3000804530B1A84204D040F2CB117CA003F020
:101F400022F8E068800A04D04FF4E67178A003F02C
:101F50001AF82069A84207D0B0F5404F04D040F2EB
:101F6000CD1173A003F00FF8606930B1012804D0DF
:101F70004FF4E7716EA003F006F8A06930F0FE00A0
:101F800004D040F2CF116AA002F0FDFFE06930B149
:101F9000402804D04FF4E87165A002F0F4FF206AF5
:101FA00030B1802804D040F2D11161A002F0EBFFE3
:101FB00094F83D00002520B984F83C50204600F0FC
:101FC000DDF8242084F83D002068016821F001013B
:101FD00001602068016841F40041016020680168E7
:101FE00021F40041016000F097FD604A6168914270
:101FF00002D85F4901E002E05E49884201D2012037
:1020000070BD5D492368B0FBF1F15E6826F03F06C4
:102010000E435E606368934206D94FF4967359434A
:102020004FF47A73B1FBF3F12368491C1E6A26F062
:102030003F06314319626168914210D84900401E41
:10204000B0FBF1F2521CC2F30B02042A01D20420AD
:1020500022E0B0FBF1F0401CC0F30B001CE0A368D1
:10206000F3B301EBC10202EB0116421EB2FBF6F222
:10207000521C42F48042120549D093B301EBC102D5
:1020800002EB0111401EB0FBF1F0401CC0F30B004D
:1020900040F4804040F400402168CA694CF6FF7368
:1020A0009A431043C861D4E90710014320680268CD
:1020B00022F0C00211430160D4E90301014320680A
:1020C000826848F2FF339A4311438160D4E90501E5
:1020D00008432168CA6822F0FF021043C86001E08B
:1020E0000EE016E02068016841F0010101602564FE
:1020F000202084F83D00256384F83E50002070BD08
:1021000001EB4106421EB2FBF6F2521CB3E701207E
:10211000C2E701EB4101401EB0FBF1F0401CC0F3EF
:102120000B00B7E70054004000580040005C00403E
:102130002E2E2F447269766572732F53544D3332AD
:10214000463478785F48414C5F4472697665722FF7
:102150005372632F73746D3332663478785F6861BD
:102160006C5F6932632E63007F1A0600A08601004F
:1021700080841E0000093D0040420F0010B586B06B
:10218000044614216846FEF7FFFB13492068884285
:1021900020D112480021026842F002020260006869
:1021A00000F002000590C02000901220CDE901014E
:1021B000032003900420049069460948FFF706FDB8
:1021C00006481030016841F400110160006800F415
:1021D0000010059006B010BD005400403038024099
:1021E0000004024070B5040033D0264920688842BC
:1021F00003D0AE2124A002F0C6FE606878B10128A9
:102200000DD002280BD0032809D0042807D00528B8
:1022100005D0062803D0AF211BA002F0B4FEA068B1
:10222000B0F5805F03D3B02117A002F0ACFE2168A7
:102230004CF6CC400860216845F255500860D4E95E
:10224000000141602168A0688860FFF74DFE0546E7
:102250000DE0012070BD00BFFFF746FE401B312896
:1022600005D92068C068800701D0032070BD2068B0
:10227000C0688007F0D121684AF6AA2008600020D3
:1022800070BD0000003000402E2E2F44726976652C
:1022900072732F53544D3332463478785F48414C33
:1022A0005F4472697665722F5372632F73746D3356
:1022B00032663478785F68616C5F697764672E6333
:1022C0000000000000684AF6AA2101600020704763
:1022D0000248816802781144816070474C000020F8
:1022E0000B4810B5016841F400710160016841F4C8
:1022F00080610160016841F480710160032000F099
:10230000F3F80F2000F006F800F050F8002010BDA0
:10231000003C024030B50546204887B000240168E3
:1023200041F001010160006806A900F00100009081
:1023300001A800F0D1FB0498B0B100F0EDFB400023
:1023400017494FF08042B0FBF1F11648491E026078
:1023500040F2E732C0E90324C0E90114846101F0CE
:102360001DFB040003D015E000F0D6FBE8E70D48A4
:1023700001F0C2FB04000DD11C2000F033F8102D39
:1023800007D2002229461C2000F05EF806480560AE
:1023900000E0012407B0204630BD00004038024074
:1023A00040420F00E8080020500000200C4882B096
:1023B000016841F480410160006800F480400090B1
:1023C0000748001F016841F0805101600068002249
:1023D00000F0805000900F21901E02B000F034B841
:1023E0004438024010B5040003D5BC2107A002F018
:1023F000CAFD002C09DB04F01F010120884061099F
:10240000890001F1E021C1F8000110BD2E2E2F44FA
:102410007269766572732F53544D3332463478782F
:102420005F48414C5F4472697665722F5372632F27
:1024300073746D3332663478785F68616C5F636F94
:10244000727465782E63000070B515460C4606461A
:10245000102A03D3A82114A002F095FD102C03D359
:10246000A92111A002F08FFD1E480068C0F30223CD
:10247000C3F107022046042A00D90422191D0729A6
:1024800001D2002300E0DB1E012404FA02F1491E00
:10249000014099409C40641E2C4021433046BDE8D9
:1024A000704002F0C0BC00002E2E2F447269766589
:1024B00072732F53544D3332463478785F48414C11
:1024C0005F4472697665722F5372632F73746D3334
:1024D00032663478785F68616C5F636F72746578B8
:1024E0002E6300000CED00E010B5044607280BD069
:1024F000062C09D0052C07D0042C05D0032C03D0C2
:10250000902108A002F03FFD154904F00702086879
:102510004FF6FF03184040EA0220124A10430860B9
:1025200010BD00002E2E2F447269766572732F53F2
:10253000544D3332463478785F48414C5F44726979
:102540007665722F5372632F73746D3332663478ED
:10255000785F68616C5F636F727465782E630000EA
:102560000CED00E00000FA052DE9F8430446006890
:10257000401E0E2804D940F6FD1191A002F003FD83
:1025800020684FF00109C1074FF0000601D1400754
:1025900044D5E068801E052804D940F6042188A0AF
:1025A00002F0F1FCA0683238B0F5BF7F04D940F6E4
:1025B000052183A002F0E7FC6068801E3D2804D955
:1025C00040F607217EA002F0DEFCDFF83082C8F87A
:1025D0006860FFF789FC0746894D04E0FFF784FC3B
:1025E000C01B02287ED828680001F7D4A068217B90
:1025F000800140EA017061680843814984310860C4
:10260000C8F86890FFF770FC074604E0FFF76CFC21
:10261000C01B0228E6D828680001F7D5207880077B
:102620007AD52069B0F5807F63D0B0F5007F60D0A7
:10263000744988425DD0744988425AD073498842AF
:1026400057D07349884254D07249884251D0724958
:1026500088424ED0714988424BD07149884248D057
:102660007049884245D07049884242D06F498842BB
:102670003FD06F4988423CD06E49884239D06E497C
:10268000884236D06D49884233D06D49884230D077
:102690006C4988422DD06C4988422AD06B498842C7
:1026A00027D06B49884224D06A49884221D06A49A0
:1026B00088421ED0694988421BD06949884218D097
:1026C0006849884215D06849884212D067498842D3
:1026D0000FD0674988420CD06649884209D06649C4
:1026E000884200E043E004D040F6372134A002F0F5
:1026F0004AFC43484030016841F080510160006865
:102700005E4D00F080500090286840F48070286092
:10271000FFF7EAFB074606E040E000BFFFF7E4FBF7
:10272000C01B022823D82868C005F7D5344D703562
:10273000286810F4407020D0218A01F44071814251
:102740001BD028684E4920F44070C1F800900E60FC
:1027500028602868C00710D0FFF7C6FB064641F284
:10276000883707E0FFF7C0FB801BB84202D903207F
:10277000BDE8F88328688007F4D521692048C1F3B3
:1027800001220830032A12D0016821F4F8110160F7
:102790002868218AC1F30B010843286020780007CC
:1027A00003D53849207DC1F8E0010020E0E7026848
:1027B000354B22F4F81219400A430260E8E70000A2
:1027C0002E2E2F447269766572732F53544D333217
:1027D000463478785F48414C5F4472697665722F61
:1027E0005372632F73746D3332663478785F686127
:1027F0006C5F7263635F65782E6300000000474280
:10280000003802400003020000030300000304003C
:102810000003050000030600000307000003080092
:102820000003090000030A0000030B0000030C0072
:1028300000030D0000030E0000030F000003100052
:102840000003110000031200000313000003140032
:102850000003150000031600000317000003180012
:102860000003190000031A0000031B0000031C00F2
:1028700000031D0000031E0000031F000070004045
:10288000400E474200104742FFFCFF0F2DE9F04782
:102890000E4604007DD02068401E0E2804D940F268
:1028A0005A217AA002F06FFB96B1012E10D0022EB1
:1028B0000ED0032E0CD0042E0AD0052E08D0062EE2
:1028C00006D0072E04D040F25B2170A002F05BFB23
:1028D000DFF8F081D8F80000F7B200F00700B0424E
:1028E00007D288F80070D8F8000000F00700B04266
:1028F0004FD12068744D810729D5400703D528683A
:1029000040F4E05028602078000703D5286840F4A0
:1029100060402860A068A0B1802812D0902810D014
:10292000A0280ED0B0280CD0C0280AD0D02808D0BB
:10293000E02806D0F02804D040F27E2153A002F017
:1029400022FB2868A16820F0F00008432860207866
:10295000C00743D0DFF870916068A9F1080988B119
:10296000012822D0022824D0032822D040F2852139
:1029700046A002F008FB6068012816D0022818D093
:10298000032816D0D9F800008007002833DA286819
:1029900000E030E0616820F0030008432860FFF7A2
:1029A000A3FA814641F2883A11E0D9F80000800389
:1029B000EBE7D9F800008001E7E700BFFFF794FAE2
:1029C000A0EB0901514502D90320BDE8F087286832
:1029D000616800F00C00B0EB810FEFD1D8F8001067
:1029E000404601F00701B14207D90770006800F0C6
:1029F0000700B04201D00120E7E720784FF480566D
:102A000040074FF4A0574FF4C0584FF4E05914D585
:102A1000E06860B1B0420AD0B84208D0404506D064
:102A2000484504D040F2C32118A002F0ACFA28684F
:102A3000E16820F4E050084328602078000715D5AD
:102A4000206960B1B0420AD0B84208D0404506D0F3
:102A5000484504D040F2CA210CA002F094FA28683C
:102A6000216920F4604040EAC100286000F074F859
:102A70002968164AC1F30311515CC8401449086023
:102A800014480068FFF746FC00209EE72E2E2F44D6
:102A90007269766572732F53544D333246347878A9
:102AA0005F48414C5F4472697665722F5372632FA1
:102AB00073746D3332663478785F68616C5F72630B
:102AC000632E6300003C024008380240787A000818
:102AD00058000020500000200F2202600C4A1368AA
:102AE00003F003034360136803F0F003836013688B
:102AF00003F4E053C36012684FF4E05303EAD202D8
:102B000002610448006800F0070008607047000098
:102B100008380240003C0240044805490068096842
:102B2000044AC1F38221515CC8407047580000201C
:102B300008380240887A0008044805490068096896
:102B4000044AC1F34231515CC8407047580000202C
:102B500008380240887A0008154810B5006810F05F
:102B60000C02144813D01449042A0FD0082A0ED19D
:102B70000F4C241F2268236802F03F025B0207D536
:102B80002068C0F38810A0FB010106E0084610BDD4
:102B90002168C1F38811A1FB00010023FDF73CFC73
:102BA0002168C1F30141491C4900B0FBF1F010BD9F
:102BB000083802400024F40040787D012DE9F84FE8
:102BC00004007DD020680F2803D9E621F7A002F089
:102BD000DAF92078DFF80C94C007A9F1040555D084
:102BE00060684FF480364FF4A02738B1B04205D06A
:102BF000B84203D0EB21EDA002F0C5F9F948001D61
:102C00000168C1F38101012908D00068C0F3810087
:102C100002280AD1D9F80000400206D528688003AE
:102C200034D560680028CCD030E06068B04203D171
:102C3000286840F480300CE0B842286803D140F4A2
:102C400080202860F4E720F480302860286820F491
:102C500080202860606860B1FFF746F9064604E00E
:102C6000FFF742F9801B64287ED828688003F7D5D7
:102C70000CE0FFF739F9064605E000BFFFF734F92D
:102C8000801B6428F0D828688003F7D42078DFF808
:102C9000588380074FF0000A56D5E06830B101280C
:102CA00004D040F21D11C1A002F06DF920691F2867
:102CB00004D94FF48F71BDA002F065F9C94800E056
:102CC00092E0001D016811F00C0F08D00068C0F3FD
:102CD0008100022810D1D9F8000040020CD42868E5
:102CE000800702D5E06801287ED12868216920F09C
:102CF000F80040EAC10017E0E068B8B10120C8F868
:102D00000000FFF7F1F8064605E000BFFFF7ECF81A
:102D1000801B0228A8D828688007F7D5286820F0EB
:102D2000F801206941EAC00028600DE0C8F800A061
:102D3000FFF7DAF8064604E0FFF7D6F8801B022812
:102D400092D828688007F7D4207800072ED5A54EA2
:102D5000A64F60697036D0B1012808D04FF4AF712A
:102D600092A002F010F900E04BE1606978B1012017
:102D70003860FFF7B9F8074605E000BFFFF7B4F881
:102D8000C01B0228C6D830688007F7D50EE0C7F808
:102D900000A0FFF7A9F8074605E000BFFFF7A4F879
:102DA000C01B0228B6D830688007F7D420784007C7
:102DB00076D5A068002740B1012806D0052804D0A8
:102DC0004FF4C57179A002F0DEF8DFF818B20BF10C
:102DD0003C0BDBF80000C0000DD4DBF8001041F024
:102DE0008051CBF8001000E038E1DBF8000001274B
:102DF00000F0805000907E4E3068C00511D43068DD
:102E000040F480703060FFF76FF8009006E000BF7C
:102E1000FFF76AF80099401A022891D83068C00577
:102E2000F6D5704EA0686C3601280FD005283068A2
:102E300010D020F001003060306820F004003060D5
:102E4000A068B8B1FFF750F800900FE0306840F08C
:102E50000100F4E740F004003060F7E7FFF744F8C2
:102E60000099411A41F2883081428BD8306880073E
:102E7000F4D50EE0FFF738F8009007E0FFF734F8DC
:102E80000099411A41F2883081428BD8306880071E
:102E9000F4D42FB1DBF8001021F08051CBF80010F2
:102EA000A069002876D0012809D0022807D040F276
:102EB000CD113EA002F067F8A0690028F2D0494881
:102EC000001D0068C0F381000228A0696DD00228AF
:102ED00005D0C8F860A0FFF707F8044694E0E06961
:102EE00038B1B0F5800F04D04FF4EB712FA002F091
:102EF0004AF8206A801E3D2804D940F2D7112BA041
:102F000002F041F8606A3238B0F5BF7F04D94FF45F
:102F1000EC7126A002F037F8A06A02280AD0042833
:102F200008D0062806D0082804D040F2D9111FA0E6
:102F300002F029F8E06A801E0D2804D94FF4ED71E3
:102F40001AA002F020F84746C8F860A0FEF7CCFFB0
:102F5000064604E0FEF7C8FF801B022851D8286807
:102F60008001F7D4D4E907010843A16A214A49083E
:102F700002EB0141626A41EA8211084394F82C1085
:102F800040EA0161C9F8001001203866FEF7ACFF85
:102F9000044606E064E000BFFEF7A6FF001B02281F
:102FA0002FD828688001F7D55AE031E02E2E2F4423
:102FB0007269766572732F53544D33324634787884
:102FC0005F48414C5F4472697665722F5372632F7C
:102FD00073746D3332663478785F68616C5F7263E6
:102FE000632E63000438024000004742800E4742CF
:102FF000007000400000FFFFFEF776FF001B022874
:1030000002D90320BDE8F88F28688001F4D427E0B6
:103010000128F7D0D9F80000E26900F4800191425C
:103020001CD1226A00F03F01914217D147F6C071CE
:10303000626A0140B1EB821F10D1A26A4FF0FF33E8
:1030400000F4403103EB5202B1EB024F06D194F889
:103050002C1000F07060B0EB016F01D00120D1E7BF
:103060000020CFE710B5040049D0474920688842C6
:1030700004D04FF4827145A001F085FF60684028BC
:1030800005D020B140F2051140A001F07CFFA068FE
:103090007F2804D94FF483713CA001F074FFE068ED
:1030A000B0F5004F04D340F2071138A001F06BFFD8
:1030B000206968B1B0F5001F0AD0B0F5800F07D0C5
:1030C000B0F5C00F04D04FF4847130A001F05BFF65
:1030D000606938B1B0F5801F04D040F209112BA00F
:1030E00001F051FFA06938B1B0F5802F04D04FF442
:1030F000857126A001F047FF607F10B106E0012036
:1031000010BD00202077204600F05EF80220607796
:103110002068C168C943C90632D5CA214162216805
:1031200053204862204601F097FA20BB206881684E
:10313000244A114081602168886862681043D4E99C
:1031400004231A43104388602168E06808612068FE
:103150000169228941EA02410161204601F0A0FA99
:1031600048B921680A6C22F480220A6421680A6C3A
:10317000A3691A430A642268FF21516208B110BD95
:1031800000200121617710BD002800402E2E2F4421
:103190007269766572732F53544D333246347878A2
:1031A0005F48414C5F4472697665722F5372632F9A
:1031B00073746D3332663478785F68616C5F7274F3
:1031C000632E6300BFFF8FFF10B586B00446182141
:1031D0006846FDF7D9FB0949206888420CD10220D6
:1031E0000090000204906846FFF7BEF908B1FEF7B0
:1031F00090FC03490120086006B010BD0028004083
:103200003C0E47422DE9F04116000C46054606D01B
:10321000012E04D040F25F3150A001F0B4FE287FAF
:10322000012805D001272F77022068771EB109E019
:103230000220BDE8F0816078C10603D500F0EF0000
:103240000A3060702078012810D002280ED00328A0
:103250000CD004280AD0052808D0062806D0072854
:1032600004D040F26B313DA001F08DFEE078002EDD
:103270003AD001F0DDF9632804D940F27A3137A061
:1032800001F081FE607801F0D3F920B1607801F09F
:10329000CFF90C2804D940F27B3130A001F073FE45
:1032A000A07801F0C5F920B1A07801F0C1F91F287C
:1032B00004D94FF45F7129A001F065FEA078E17890
:1032C00040EA014660782178000240EA4130064336
:1032D0002968CA204862296853204862284601F0BC
:1032E000BBF900282AD032E0632804D940F26F31BC
:1032F0001AA001F048FE6078401E0B2804D94FF454
:103300005C7116A001F03FFEA078401E1E2804D973
:1033100040F2713111A001F036FEE07801F091F930
:103320000204607801F08DF942EA0022A07801F0F1
:1033300088F90243207842EA4036C9E7154806403A
:1033400028684660284601F0ABF900B96F772A6813
:10335000FF215162002129776BE700002E2E2F44B8
:103360007269766572732F53544D333246347878D0
:103370005F48414C5F4472697665722F5372632FC8
:1033800073746D3332663478785F68616C5F727421
:10339000632E63003FFFFF002DE9F04116000C464D
:1033A000054606D0012E04D04FF4307166A001F01E
:1033B000EAFDE068B0F5003F08D0B0F5803F05D0E9
:1033C00020B140F2C12160A001F0DDFD206938B1DB
:1033D000B0F5802F04D040F2C2215BA001F0D3FDF4
:1033E000287F012823D04FF0010885F81C80022097
:1033F00068772868002780684FEA4060D6B10028C7
:1034000054DA207801F014F920B1207801F010F995
:103410000C2804D940F2E1214BA001F0B4FDE07882
:1034200000284ED001284CD040F2E22146E0022094
:10343000BDE8F08100280FDA2078401E0B2804D95F
:1034400040F2CD2140A001F09EFDE07868B1012856
:103450000BD040F2CE2105E0E7702078172804D980
:1034600040F2D32138A001F08EFD60783B2804D9CA
:1034700040F2D52134A001F086FDA0783B2804D984
:1034800040F2D62130A001F07EFD207801F0D9F87D
:103490000204607801F0D5F842EA0022A07801F039
:1034A000D0F80243E07842EA805628E0E7702078BE
:1034B00001F0BEF8172804D940F2E72122A001F05C
:1034C00062FD607801F0B4F83B2804D940F2E921AC
:1034D0001DA001F058FDA07801F0AAF83B2804D9FE
:1034E00040F2EA2118A001F04EFDA078217840EAD0
:1034F00001466078E178000240EA8150064329687D
:10350000CA204862296853204862284601F0A4F87E
:10351000A8B91B480640286806602868816821F41D
:1035200080218160D4E90301084329688A68104337
:103530008860284601F0B4F808B985F81D802A682B
:10354000FF2151622F7773E72E2E2F447269766523
:1035500072732F53544D3332463478785F48414C60
:103560005F4472697665722F5372632F73746D3383
:1035700032663478785F68616C5F7274632E6300C2
:103580007F7F7F0070B504460B482168C860FEF756
:10359000ABFC05464FF47A7607E000BFFEF7A4FCCB
:1035A000401BB04201D9032070BD2068C06880066E
:1035B000F4D5002070BD00005F3F0100704700009F
:1035C00038B5016804464A688868C043430606D592
:1035D000C30704D1D3435B0601D4216C05E0830704
:1035E00008D4D3431B0605D4616C01B02046BDE866
:1035F00030400847830603D5430601D5C30551D49F
:10360000D3439B064ED443060AD494F85130032B7F
:1036100049D0636D43F004036365CB688B68009306
:10362000830609D4636D43F0010363658B680093DF
:103630000B6823F040030B60C00506D4606D40F0BA
:1036400008006065206880680090606D002829D0BF
:103650002068416821F0E0014160012084F85100B8
:10366000900701D4D00722D02068416821F00301DF
:103670004160114DE06C40B10565E06CFEF794FAD5
:1036800018B1606D40F040006065A06C002809D062
:103690000565A06CFEF788FA002803D0606D40F045
:1036A0004000606538BDC8688868009038BD204615
:1036B000FFF784FF38BD0000D946000870B504004C
:1036C0007ED083492068884210D0824988420DD03C
:1036D000814988420AD08149884207D0804988427E
:1036E00004D04FF4A0717FA001F04DFC60684FF44E
:1036F000827630B1B04204D040F2411179A001F09D
:1037000042FCA06850B1B0F5806F07D0B0F5004F13
:1037100004D04FF4A17173A001F035FCE068B0F55E
:10372000006F05D020B140F243116EA001F02BFCD8
:10373000A069B0F5007F08D038B1B0F5802F04D073
:103740004FF4A27167A001F01EFCE06990B1082857
:1037500010D010280ED018280CD020280AD02828E5
:1037600008D0302806D0382804D040F245115DA09A
:1037700001F009FC206A30B1802804D04FF4A37115
:1037800058A001F000FC606A002548B3102806D05C
:1037900040F2471153A001F0F6FB606A00B3E06904
:1037A000A0B1082812D0102810D018280ED0202838
:1037B0000CD028280AD0302808D0382806D000E0BD
:1037C0000CE040F2591147A001F0DDFB2561656175
:1037D000A56294F85100002830D034E0012070BD7B
:1037E000206930B1022804D04FF4A5713DA001F04A
:1037F000CAFB606930B1012804D040F24B1139A0F6
:1038000001F0C1FB6068B04216D1E0690028DFD04A
:103810000828DDD01028DBD01828D9D02028D7D010
:103820002828D5D03028D3D03828D1D040F24F1115
:103830002CA001F0A8FBCBE7E561C9E784F8505064
:10384000204600F06BF8022084F8510020680168DF
:1038500021F040010160A088218900F4827001F408
:1038600004410843A18901F400610843217C01F06F
:1038700002010843217D01F001010843218B01F47D
:1038800000710843217F01F03801084394F82010AB
:1038900001F080010843218D01F4005108432168A3
:1038A0000860A069042101EA104094F8241001F096
:1038B00010010843216848602068C16921F4006153
:1038C000C1616565012084F85100002070BD0000D1
:1038D0000030014000380040003C0040003401400E
:1038E000005001402E2E2F447269766572732F535B
:1038F000544D3332463478785F48414C5F447269A6
:103900007665722F5372632F73746D333266347819
:10391000785F68616C5F7370692E630010B586B064
:10392000044614216846FDF72FF81849206888429C
:1039300029D117480021026842F4804202600068E1
:1039400000F48040059012481038026842F00202EC
:103950000260006800F0020005904FF444400090BF
:103960000220CDE90101032003900520049069465F
:103970000848FEF72BF9002205212420FEF764FDFC
:103980002420FEF72FFD06B010BD000000380040D7
:1039900040380240000402407047704770B5040090
:1039A00045D03F4920688E033E4D884217D0B04233
:1039B00015D03D49884212D03C4988420FD0A842D8
:1039C0000DD03B4988420AD03A49884207D03A494B
:1039D000884204D040F2131138A001F0D4FAA06854
:1039E00060B110280AD0202808D0402806D06028CE
:1039F00004D04FF48A7131A001F0C5FA206950B1AA
:103A0000B0F5807F07D0B0F5007F04D040F21511EB
:103A10002AA001F0B8FA2068B0420AD0A84208D023
:103A2000E0684FF6FE71401E884209D903E001208C
:103A300070BDE06820B94FF48B7120A001F0A3FAAB
:103A4000A06930B1802804D040F217111BA001F00A
:103A50009AFA94F83D0028B9002084F83C002046EA
:103A600000F048F8022084F83D00211D206800F095
:103A7000BDFF012084F8460084F83E0084F83F0032
:103A800084F8400084F8410084F8420084F8430040
:103A900084F8440084F8450084F83D00002070BD9F
:103AA00000000140000C00400004004000080040FD
:103AB0000040014000440140004801402E2E2F44A8
:103AC0007269766572732F53544D33324634787869
:103AD0005F48414C5F4472697665722F5372632F61
:103AE00073746D3332663478785F68616C5F7469C3
:103AF0006D2E6300704700002DE9F047074600680F
:103B0000234C244D244EDFF89480DFF894904FF03E
:103B1000804AA04214D0504512D0A84210D0B042E2
:103B20000ED040450CD048450AD01E49884207D0E7
:103B30001D49884204D04FF4E8711CA001F023FA1B
:103B400097F83D00012802D00120BDE8F08702204F
:103B500087F83D003868C16841F00101C1603868EC
:103B6000A04209D0504507D0A84205D0B04203D0AA
:103B7000404501D0484504D1816801F0070106297C
:103B800003D0016841F0010101600020DDE7000081
:103B9000000001400004004000080040000C00400C
:103BA0000040014000440140004801402E2E2F44B7
:103BB0007269766572732F53544D33324634787878
:103BC0005F48414C5F4472697665722F5372632F70
:103BD00073746D3332663478785F68616C5F7469D2
:103BE0006D2E630070472DE9F04104460068C668F9
:103BF00005694FF00007A90713D5B10711D5F91EC4
:103C0000016101202077206880698007204602D06A
:103C1000FFF7E8FF04E000F07EF8204600F07CF8B3
:103C20002777680716D5700714D521686FF0040050
:103C30000861022020772068806910F4407F2046C8
:103C400002D0FFF7CFFF04E000F065F8204600F057
:103C500063F82777280715D5300713D521686FF04B
:103C600008000861042020772068C069800720468A
:103C700002D0FFF7B7FF04E000F04DF8204600F057
:103C80004BF82777E80616D5F00614D521686FF0B3
:103C900010000861082020772068C06910F4407F78
:103CA000204602D0FFF79EFF04E000F034F82046E3
:103CB00000F032F82777E80708D0F00706D021682F
:103CC0006FF001000861204600F027F8280608D5AB
:103CD000300606D521686FF0800008612046FFF7A6
:103CE0005BFE680608D5700606D521686FF04000B7
:103CF0000861204600F018F8A8060AD5B00608D5D5
:103D000021686FF0200008612046BDE8F041FFF710
:103D100044BEBDE8F081704770470068B0F1804F45
:103D200001D1FEF7D5BA7047704770477047000061
:103D3000F8B5016804460868CA684B6910F00F0FAF
:103D40004FF0000559D003F0010602F49077374395
:103D500065D0C10705D0D10503D5616C41F00101E3
:103D60006164410705D5D90703D0616C41F00201B8
:103D70006164810705D5D90703D0616C41F0040166
:103D80006164010707D502F02001314303D0616C63
:103D900041F008016164616C00293AD0800604D5C5
:103DA000900602D5204600F0A2FE20684069616CB2
:103DB000C0F38010090700D460B3204600F070FE05
:103DC00020684069400621D52068143050E8001F63
:103DD00021F0400140E80012002AF5D1E06BA8B1C3
:103DE0006E490165E06BFDF7DFFE002811D0E06B46
:103DF000016D01B0BDE8F040084783060FD593067A
:103E00000DD52046BDE8F84000F071BE2046FFF712
:103E10008DFFF8BD2046FFF789FF6564F8BD266B6E
:103E20002023012E7DD1C6067BD5D60679D508681C
:103E30004868009048694FF00206400641D5E16BA2
:103E4000086840680004000CE8D0A28D8242E5D9E1
:103E5000E085C869B0F5807F2DD020680C3050E82F
:103E6000001F21F4807140E80012002AF5D120687B
:103E7000143050E8001F21F0010140E80012002A30
:103E8000F5D12068143050E8001F21F0400140E8CF
:103E90000012002AF5D184F84230256320680C30E6
:103EA00050E8001F21F0100140E80012002AF5D16F
:103EB000E06BFDF730FE6663A08DE18D401A81B2A4
:103EC0002AE0A08DE18D401A81B2E08D0028A5D0B6
:103ED0000029A3D022680C3252E8000F20F4907021
:103EE00042E80007002FF5D12068143050E8002F79
:103EF00022F0010240E80027002FF5D184F842307B
:103F0000256320680C3050E8002F22F0100240E8B2
:103F10000023002BF5D166632046FFF706FFF8BDAE
:103F2000FFE705062BD5150629D594F84100212871
:103F3000F5D1A068B0F5805F01D12069B0B1206AE9
:103F4000411C2162216800784860E08C401E00041A
:103F5000000CE084E3D12068C16821F08001C160D9
:103F60002068C16841F04001C160D8E7206A00883C
:103F7000C0F308004860206A801C2062E5E7400624
:103F8000CDD55006CBD5CA68204622F04002CA6083
:103F900084F8413000F0B1F9C1E70000914A00080F
:103FA00070B5040020D0A06936490028364A374B46
:103FB00020681BD088420AD0904208D0984206D090
:103FC00040F2731132A000F0DEFFA069C8B1A06911
:103FD000B0F5807F15D0B0F5007F12D0B0F5407FEE
:103FE0000FD04FF4BA7109E0012070BD884208D0AB
:103FF000904206D0984204D04FF4BC7124A000F047
:10400000C2FFA06838B1B0F5805F04D04FF4BD7135
:104010001FA000F0B8FFE06938B1B0F5004F04D040
:1040200040F27B111AA000F0AEFF94F84100002589
:1040300020B984F84050204600F048F8242084F845
:1040400041002068C16821F40051C160204600F0A1
:10405000D9FD2068016921F490410161206841691E
:1040600021F02A0141612068C16841F40051C1601A
:104070006564202084F8410084F8420065630020D4
:1040800070BD0000001001400044004000140140D9
:104090002E2E2F447269766572732F53544D33322E
:1040A000463478785F48414C5F4472697665722F78
:1040B0005372632F73746D3332663478785F68613E
:1040C0006C5F756172742E6300000000F0B587B0FC
:1040D000044614216846FCF757FC2A49284F2668F5
:1040E0000025284A1439022303242748BE421FD141
:1040F000166846F010061660126802F0100205926B
:104100000A6842F001020A60096801F001010591A4
:1041100061028DE82A000721CDE903416946FDF7D8
:1041200055FD002205212520FEF78EF9252022E0ED
:10413000164FBE4221D1166846F02006166012685E
:1041400002F0200205920A6842F001020A60096842
:1041500001F0010105914FF4C0518DE82A000821BA
:10416000CDE903416946FDF731FD002205214720D5
:10417000FEF76AF94720FEF735F907B0F0BD0000F9
:104180000010014044380240000002400014014089
:1041900090F84230202B01D00220704721B11AB193
:1041A0000023036300F0FEBD012070472DE9F047B6
:1041B000804600683C4900273C4C884250D13C4D29
:1041C0002078A1782954401CC1B221702E7800209B
:1041D000032E04D0042E04D0052E03D101E01120BB
:1041E00000E00920814235D32918801E31F8029C55
:1041F00081B22F4800F050FF814525D1032E04D015
:10420000042E13D0052E1FD116E0E81C00F0F0F9A3
:1042100084ED010AE81D00F0EBF9254884ED020A5F
:104220000B3000F0E5F984ED030A0DE0E81C00F026
:10423000F1F984ED040A07E0E81C00F0E4F91D49F7
:1042400084ED050A012008604FF480711848FCF7DE
:1042500079FB277015490122891C1748FFF798FF41
:104260001649D8F8000088421CD115486178E278D8
:104270004254491CCAB2627001787B2909D11044AA
:1042800010F8010C7D2805D10D4901F58070FCF76F
:10429000E2FA6770BDE8F04704490122C91C0948E9
:1042A000FFF776BFBDE8F08700100140280000202E
:1042B00030090020040000205808002000140140AC
:1042C000300A0020A008002090F84130202B01D0B7
:1042D0000220704779B172B101628284C2840021E8
:1042E0004164212180F841100068C16841F08001DB
:1042F000C16000207047012070477047FEE7000052
:1043000030B59DB0002019901A90012119A800F035
:1043100051FF1D4C1D4D0022E061D5E90001CDE9A2
:104320001B0101211BA800F08FFF0835A06195E853
:104330000F0015AD85E80F00002115A800F027FF3C
:10434000124960611C2218316846FCF7C9FA002145
:10435000684600F04EFF0D49A0601C22343107A8CA
:10436000FCF7BEFA002107A800F043FF0749E06010
:104370001C2250310EA8FCF7B3FA00210EA800F061
:1043800038FF20611DB030BD000000200C7A00080D
:1043900070B586B014216846FCF7F6FA2748002469
:1043A000016841F004010160016801F00401059118
:1043B000016841F080010160016801F08001059110
:1043C000016841F001010160016801F001010591FE
:1043D000016841F0020101600068194E00F002001E
:1043E0000590002207213046FDF748FD4FF40050AC
:1043F0000325CDE90005694602941248FDF7E6FB66
:10440000072000900120CDE901046946304603945D
:10441000FDF7DCFB48F2F810CDE90005694602948F
:104420003046FDF7D3FB43F23F30CDE90005694646
:1044300002940548FDF7CAFB06B070BD3038024053
:104440000000024000080240000402400D4810B580
:104450000B4901600C49416000214FF480428160AA
:10446000C0E9031241618161C1610162FDF742FD52
:10447000002803D0BDE81040FDF74BBB10BD000085
:104480000054004080070020A0860100094810B5B4
:10449000074901600021416040F2EE218160FDF793
:1044A000A1FE002803D0BDE81040FDF732BB10BDCF
:1044B00000300040D407002010B586B014216846B3
:1044C000FCF762FA1B48002419490594C0E900145E
:1044D0007F218160FF21C0E9031444618461FEF7FC
:1044E000C1FD08B1FDF715FB8DF800408DF80140C6
:1044F0008DF802400394012269460E480494FEF7A9
:104500004BFF08B1FDF705FB01208DF814008DF875
:1045100015008DF8160002468DF8174005A90548CC
:10452000FEF770FE002801D0FDF7F3FA06B010BDCB
:1045300000280040E00700200F4810B50D49016039
:104540004FF48271416000218160C1604FF40072BC
:104550000161C0E90512C1610162416281620A2103
:10456000C162FFF7ABF8002803D0BDE81040FDF7AB
:10457000D0BA10BD00380040000800200C4810B52B
:104580000A4901604FF416514160002181600C22FC
:10459000C160C0E904128161C161FFF701FD00281B
:1045A00003D0BDE81040FDF7B4BA10BD00100140C3
:1045B000580800200C4810B50A4901604FF4165104
:1045C0004160002181600C22C160C0E90412816158
:1045D000C161FFF7E5FC002803D0BDE81040FDF7FE
:1045E00098BA10BD00140140A0080020FEE7FEE7C5
:1045F0000188827849BA0904C07841EA022101435E
:1046000000EE101A7047008840BA00EE100AB8EEAB
:10461000400A704700889FED051A40BA00EE100A64
:10462000F8EE400A80EE810A704700000000C842A0
:10463000010901EB810100F00F0000EB4100C0B265
:104640007047002102E00A38C0B2491C0A28FAD299
:10465000090740EA116070472DE9F04104460068FF
:104660000025C168490618D4C16841F08001C160C5
:10467000FDF73AFC06464FF47A78042707E000BFBE
:10468000FDF732FC801B404501D967770125206882
:10469000C068400601D4002DF2D02846BDE8F08164
:1046A00070B5044600680025C16821F08001C16032
:1046B00020688068800606D42046FEF763FF10B1AC
:1046C000042060770125284670BD00000148FEF7F0
:1046D00077BF00000008002010B5806B0021C18763
:1046E000C186FEF76BFF10BD2DE9F04397B000F0D7
:1046F00071FC81464CA000F075FC02464FA1484673
:1047000000F050FC504F386803F008F9CDE9000183
:104710004EA2102102A8FBF70BFF4E4C206803F0BD
:10472000FDF8CDE9000149A2102106A8FBF700FF22
:10473000DFF82481D8F8000003F0F0F8CDE900019B
:1047400042A210210AA8FBF7F3FE444D286803F0AB
:10475000E5F8CDE900013DA210210EA8FBF7E8FE27
:104760003F4E306803F0DAF8CDE9000137A210219E
:1047700012A8FBF7DDFE02A800F034FC024639A1C6
:10478000484600F00FFC06A800F02CFC024639A1B8
:10479000484600F007FC0AA800F024FC02463AA1B3
:1047A000484600F0FFFB0EA800F01CFC024639A1B1
:1047B000484600F0F7FB12A800F014FC024636A1B0
:1047C000484600F0EFFB0020029003900490059013
:1047D00006900790089009900A900B900C900D900D
:1047E0000E900F90109011901290139014909FEDD6
:1047F0002B0A159087ED000A84ED000A88ED000A67
:1048000085ED000A86ED000A484600F02BFC0446C0
:1048100000F0E6F9484600F0F3FB2046FBF7D5FD33
:1048200017B0BDE8F083000055706461746553658E
:104830006E736F7244617461000000004F706572A6
:104840006174696E670000002C000020252E32661E
:10485000000000003000002034000020380000205C
:104860003C000020444F5F53617475726174696F3E
:104870006E000000444F5F436F6E63656E7472613B
:1048800074696F6E0000000054656D70657261742C
:1048900075726500504800004F5250000000000043
:1048A000012209490948FFF773FC01220849094818
:1048B000FFF76EFC4FF4FA74074800F079F92046D0
:1048C00000F059FCF8E700002A00002058080020FA
:1048D0002B000020A008002020000020064C00260D
:1048E0004FF4FA756068012802D1FFF7FDFE66609B
:1048F000284600F040FCF5E7000000200348FDF7E3
:10490000E1FC322000F037FCF8E70000D40700207B
:1049100010B5502080F31188BFF34F8FBFF36F8F16
:1049200002F042FB18B104494FF0805008600020AB
:1049300080F3118810BD000004ED00E030B593B0A5
:1049400030216846FCF720F814210CA8FCF71CF86D
:104950001D480024016841F080510160006800F0AA
:10496000805011901948016841F44041016000688D
:10497000102100F4404011900A2000900120CDE960
:1049800003010225CDE905050820CDE90740642093
:10499000CDE9090504200B906846FEF70FF908B130
:1049A00072B6FEE70F20CDE90C054FF48050CDE93B
:1049B0000E4003210CA81094FDF768FF002801D0D9
:1049C00072B6FEE713B030BD4038024000700040C0
:1049D0000248016841F470010160704788ED00E011
:1049E0000148FFF700B90000E8080020F0B50268B0
:1049F000204B214C9F03214D214E984207D0B842B5
:104A000005D0A04203D0A84201D0B04204D122F088
:104A1000700C4A6842EA0C02984210D0B8420ED09C
:104A2000A0420CD0A8420AD0B04208D0154CA042F7
:104A300005D0154CA04202D0144CA04203D122F460
:104A40004074CA6822434C6922F08002224302600B
:104A50008A68C2620A688262984201D10969016368
:104A6000012141610169C90703D0016921F00101F8
:104A70000161F0BD0000014000040040000800405A
:104A8000000C00400040014000440140004801404B
:104A900010B5806B0021C185C184FFF747F910BDB7
:104AA00001680C3151E8002F22F4907241E8002394
:104AB000002BF5D10168143151E8002F22F00102DA
:104AC00041E80023002BF5D1016B012909D10168D0
:104AD0000C3151E8002F22F0100241E80023002B96
:104AE000F5D1202180F8421000210163704708B5FC
:104AF00090F84210222901D0022008BD82684FF4AC
:104B000080539A4201D1016921B1816A9A421BD036
:104B10004AB10AE00268816A5268C2F308020A8058
:104B2000816A891C08E0026972B10268526802F069
:104B30007F020A70816A491C8162C18D491E090485
:104B4000090CC18503D01BE002685268F1E70168D7
:104B5000CA6822F02002CA600168CA6822F4807222
:104B6000CA6001684A6922F001024A61202180F886
:104B7000421000214163026B012A03D0FFF716FBAC
:104B8000002008BD016301680C3151E8002F22F0BC
:104B9000100241E80023002BF5D101680A68D20613
:104BA00002D50A6849680091818DFFF7BEF8E7E7F2
:104BB00070B50A4E05460024291901220748FFF75F
:104BC00083FB00BF96F841002028FBD1641C082C11
:104BD000F2DBBDE87040642000F0CDBA5808002038
:104BE00010B50446FBF718FE82B221460448FFF7D1
:104BF0006BFB034890F841102029FBD110BD000049
:104C0000A008002070B5044640685449884204D981
:104C100040F6756152A000F0B6F9E06838B1B0F521
:104C2000005F04D040F676614DA000F0ACF9206939
:104C300050B1B0F5806F07D0B0F5C06F04D040F62A
:104C4000776147A000F09FF960694FF6F371084261
:104C500000D120B940F6786141A000F094F92068B5
:104C60000169E26821F44051114301612169A068A2
:104C7000E26908436169114322680843D16849F237
:104C80000C6399430143D16020684169A26921F412
:104C900040711143416141492068884202D0404936
:104CA000884202D1FDF748FF01E0FDF735FFE269D8
:104CB0000023192164253226B2F5004F626828D0FE
:104CC000A0FB0101930F9200FBF7A6FB0146B0FB8E
:104CD000F5F06FF01802504301EB800006EB001076
:104CE000B0FBF5F000F0F002B1FBF5F002EB0012C2
:104CF000B1FBF5F06FF01803584301EB800006EBB1
:104D00000010B0FBF5F000F00F002168104488603F
:104D100070BDA0FB010192185B41FBF77DFB0146D2
:104D2000B0FBF5F00201B1FBF5F06FF0180358434A
:104D300001EB800006EBC000B0FBF5F000F0F800DE
:104D400002EB4002B1FBF5F0584301EB800006EBAB
:104D5000C000B0FBF5F000F00700D6E7A037A000D8
:104D60002E2E2F447269766572732F53544D333251
:104D7000463478785F48414C5F4472697665722F9B
:104D80005372632F73746D3332663478785F686161
:104D90006C5F756172742E630000000000100140AA
:104DA0000014014081628285C28500214164222174
:104DB00080F84210016921B10168CA6842F480722A
:104DC000CA6001684A6942F001024A610068C1682C
:104DD00041F02001C1600020704700000148FEF74B
:104DE000A7BF0000580800200148FEF7A1BF00003F
:104DF000A0080020FEE703B401984100009850EAA3
:104E0000C12018BF04204A0D18BF40F0010040F235
:104E1000FF72B2EB515F08BF40F00200012808BFEB
:104E2000052002B070470907090E002804DB00F1D5
:104E3000E02080F80014704700F00F0000F1E0203F
:104E400080F8141D70472DED020B019820F00040F2
:104E500001909DED000B02B07047000000000000C3
:104E60002DE9F0412DED020B9FED3D0B2DED028B59
:104E70009FED3D8BDDE90254C4F30A50A0F2FF36EA
:104E8000142E37DA002E18DA53EC102B9DED020B9E
:104E900051EC100B02F07EFA53EC182B02F012FCCE
:104EA00057D2002CA4BF0024254652DA24F000403B
:104EB000284318BF2E4C4CD01AE02E4820FA06F793
:104EC00004EA070028431FD053EC102B9DED020B82
:104ED00051EC100B02F05EFA53EC182B02F0F2FBCF
:104EE00037D2002C03DA4FF48010F0400444BC4366
:104EF00000252EE0332E07DCA6F114004FF0FF3121
:104F000021FA00F73D4206D19DED020BBDEC028B6C
:104F100002B0BDE8F08153EC102B9DED020B51EC7B
:104F2000100B02F005FC53EC182B02F0CBFB10D257
:104F3000002C0DDA142E08BF641C09D0C6F1340011
:104F4000012101FA00F02844A84238BF641C05463C
:104F5000BD43CDE902549DED020BD7E700000000F0
:104F60009C7500883CE4377E0000000000000000D3
:104F70000000F0BFFFFF0F0030380A2801D20120E7
:104F800070470020704770478268002901D01AB925
:104F900081607047020002D010680028FAD11160C9
:104FA0004A60704770B514000D4606460ED0206A60
:104FB00010B1074949688847284600F059F820622F
:104FC00021463046BDE87040FFF7DEBF70BD0000EF
:104FD0004000002010B500F037F8002801D006216D
:104FE000C16010BD70B5054600F02EF8040005D074
:104FF0000420E060284600F03BF82061204670BDA8
:1050000070B504460F4E19E0A0892568C0050AD482
:10501000A06820B1FFF7F4FFA089C00503D4206980
:1050200008B171688847A089800503D4206A08B157
:10503000716888477168204688472C46002CE3D168
:1050400070BD000040000020054910B50968282007
:105050008847040002D02821FBF796FC204610BDAB
:105060004000002000230122194600F051BD00003D
:1050700070B50646FBF7D0FB0649401C044609689C
:105080008847051E04D022463146FBF7E4FB28463C
:1050900070BD00004000002070B504464FF6FF7060
:1050A00000224AF201050DE0A35C58400023C60728
:1050B00002D085EA500000E040085B1C082BF6DBBC
:1050C000521C92B28A42EFD370BD00002DE9F0412C
:1050D000040009D023683BB1A2685018616881427E
:1050E00004DB9818BDE8F0810020FBE7401E40EA91
:1050F000600040EAA00040EA20100F4F40EA202064
:1051000040EA2046761C39683046884705000BD0B7
:10511000D4E90012FBF79FFB796820688847C4E94F
:105120000056A0682844DDE7796820688847002099
:1051300060602060D8E7000040000020FDF7D0F854
:10514000FFF7FCFBFFF724F9FFF780F9FFF79EF963
:10515000FFF7B2F9FFF7F0F9FFF710FAFFF72AFAB5
:10516000FFF7CEF800F00EF8FEE701460020842994
:1051700000D0C81C704710B500B9012001F0CEFA6C
:10518000002010BD10B501F031FB002010BD38B576
:10519000D0E9011204683AB1C3682BB10020009035
:1051A000204601F038FC38BD2046BDE838400022DA
:1051B00001F010BC38B543684BB1012909D1032077
:1051C000002200901146012001F025FC38BD012984
:1051D00001D0002038BD03220021012001F0FAFB9C
:1051E000040004D000231A46194601F08BFC204627
:1051F00038BD7FB50D4604464169B0F9080081B15C
:10520000A16971B1FFF7B1FFD4E905128DE807007C
:10521000D4E900102B46226901F087FE039004B008
:1052200070BDFFF7A2FF03A9CDE90001208A2B463C
:1052300082B2D4E9001001F04BFE012801D0002019
:10524000EDE70398EBE700001CB511C86CB1CDE9A0
:105250000004012907D0002013460246012109A0BD
:1052600002F00AF81CBD0120F6E70090012907D0E2
:10527000002013460246012102A001F0E3FF1CBDFD
:105280000120F6E7000000002DE9FF4F074605204A
:1052900081B0002500901E46A8462C46B86801E063
:1052A00000686D1C0028FBD1694A116885B18246EF
:1052B000002E55D001211846B568FFF707FF0028DA
:1052C00014D05B210170B068401CB060BC6829E05C
:1052D00026B103211846FFF7F9FE01E003208847B5
:1052E000040002D05BA1FBF773FA204605B0BDE8CD
:1052F000F08F039808B1022700E00127791C30469F
:10530000FFF7E4FE0028F1D02C2100F8011B0399DF
:1053100011B1202100F8011B80F800A0B0683844CA
:10532000B060246874B1DDE9021233462046491C9E
:1053300000F0EEFB304601F0AFF8B06020680028C6
:10534000EFD0D6E702213046FFF7C0FE0028CDD0CF
:105350005D21017080F801A0306800EB050874E061
:10536000A800814693468847061EBFD04946FBF7F2
:105370000BFBBF6818E0DDE9021200233846491C28
:1053800000F0C6FB46F8280008F1010850B1FBF711
:1053900043FA039901B10121014400980844801C9B
:1053A000009000E001243F6817B1002CE3D012E028
:1053B0008CB9DBF80010009888475FEA00080AD033
:1053C0005B2088F80000D14688F801A008F10104AC
:1053D0000027DA462FE000245F4605E056F8240057
:1053E00008B179688847641CAC42F7DB79683046BD
:1053F000884700207AE700BF56F82700FBF70CFA31
:105400008346024656F827102046FBF724FA681E0A
:105410005C44874209D02C2004F8010B039810B19A
:10542000202004F8010B84F80090DAF8041056F8F4
:10543000270088477F1CAF42DEDBDAF804103046D5
:1054400088475D20207084F8019040464EE70000B8
:10545000400000205B5D000070B52DED048B0C4614
:1054600005465A4E9FED5A9B90ED068B9FED5A0BC9
:1054700051EC180B53EC102B02F040F80ED124B174
:1054800002212046FFF722FE02E031680220884711
:10549000040002D052A00088208092E0686902F0E7
:1054A00069F853EC182B02F04FF941EC100BFFF7A1
:1054B000CAFC53EC192B51EC100B02F073F821D8F5
:1054C0009FED480B51EC180B53EC102B02F06AF8CF
:1054D00018D89FED460B51EC180B53EC102B02F033
:1054E000F1F80FD824B115212046FFF7EFFD02E0B7
:1054F000316815208847040063D03EA16A69FBF734
:1055000003F85EE024B140212046FFF7DFFD02E012
:10551000316840208847040053D0B0EE480AF0EECE
:10552000680AFFF79DFC53EC182B51EC100B02F0AE
:105530000BF941EC100BFFF786FC53EC192B51ECE7
:10554000100B02F02FF812D8B0EE480AF0EE680AFD
:10555000FFF779FC9FED281B51EC100B53EC112B3E
:1055600002F020F803D253EC182B25A126E0B0EE70
:10557000480AF0EE680AFFF766FC9FED231BB0EEC9
:10558000409AF0EE609A53EC112B51EC190B02F09B
:1055900009F80CD3B0EE490A9FED1D1BF0EE690A25
:1055A00053EC112B51EC100B02F08CF803D253EC9E
:1055B000182B19A102E053EC182B18A12046FAF77A
:1055C000A3FFBDEC048B204670BD0000400000200E
:1055D000000000000000B03C0000000000000000DF
:1055E000300000000000C0FFFFFFDF4100000000AE
:1055F0000000E0C12564000044F3C2E4E4E9634C28
:10560000252E3066000000008DEDB5A0F7C6B03E37
:105610000000000065CDCD41256500002566000035
:105620002DE9FE4F824607204FF0000B0090DAF87C
:10563000080015460C461F465E46CDF808B001E04E
:105640000068761C0028FBD1D1490A682EB1002FD2
:105650007ED0BE6845B3022127E03FB10DB1211DC8
:1056600000E003211846FFF731FD04E00DB1201DD5
:1056700000E00320904701006BD07B200870481C9D
:105680005DB10A2200F8012B00220923641E02E00A
:1056900000F8013B521CA242FADB7D22027000227C
:1056A00042700846BDE8FE8F01218846491C184615
:1056B000FFF70CFD0028F5D07B2100F8011B15B188
:1056C0000A2100F8011B4FF0000980F80090B9682A
:1056D000641C01EB0800B860DAF8088060E08DB166
:1056E00021463846FFF7F2FC0028DBD000210922D2
:1056F00003E000BF00F8012B491CA142FADBB868A7
:105700002044B8603946D8F8200000F047F9384600
:1057100000F0C2FEB8600DB1022000E00120824618
:1057200001463846FFF7D2FC0028BBD03A2100F8EA
:10573000011B0DB109210170B9683B4601EB0A005C
:10574000B8602A462146404600F0E2F9384601E0BA
:1057500045E062E000F0A0FEB8600DB1012100E07C
:105760000021D8F8000000B1012001EB000A0AF185
:1057700001013846FFF7AAFC002893D0D8F80010A2
:1057800011B12C2100F8011B15B10A2100F8011BF1
:1057900080F80090B96801EB0A00B860D8F8008082
:1057A000B8F1000F9BD10DB1611C00E00221384619
:1057B000FFF78CFC002898D04DB100260921641E0B
:1057C00003E000BF00F8011B761CA642FADB7D2136
:1057D000017080F80190386800EB060BD5E0B0004E
:1057E000074690475FEA000917D0694938460968BB
:1057F00088475FEA000812D039464846FBF7C4F8EC
:1058000039464046FBF7C0F8DAF8087004F1010A9F
:105810008DB300985044009031E0002042E75C498D
:105820004846496858E00021386A00F0B7F801900E
:1058300048F82B0000232A465146384600F068F904
:10584000014649F82B0001980BF1010BA0B199B169
:105850000846FAF7E1FF04460198FAF7DDFF211840
:1058600015B10AF1020000E000200144009808444C
:10587000801C009002E002E0012002903F68002FAF
:10588000D1D1029898B942490098096888475FEADF
:10589000000B0CD07B218BF800100BF1010415B12B
:1058A0000A2004F8010B00202070074654E0002471
:1058B000374D0AE058F8240008B16968884759F85C
:1058C000240008B169688847641CB442F2DB696847
:1058D000404688476968484688479EE73DB10020B2
:1058E000092202E004F8012B401C5045FADB58F86D
:1058F0002700FAF791FF0090024658F8271020463B
:10590000FAF7A9FF009804443A2004F8010B15B1F6
:10591000092004F8010B59F827102046FAF758FF20
:1059200059F82700FAF778FF0444701E874202D026
:105930002C2004F8010B15B10A2004F8010B1449BE
:1059400000202070496858F827008847104959F806
:105950002700496888477F1CB742BFDB0C4E404692
:105960007168884771684846884755B10022092107
:10597000AAF1010003E000BF04F8011B521C82429F
:10598000FADB7D2020700020607058468AE6000017
:1059900040000020006900F001B800002DE9F05F30
:1059A0000F4600250446294609E0531E1F2B14D339
:1059B000222A12D05C2A10D000221143401C027807
:1059C000002AF2D1DFF8309193464FF0220AD9F83D
:1059D000002021B1E4B1264636E00122EDE7061BA6
:1059E00027B1F11C3846FFF771FB01E0F01C90472E
:1059F000050042D080F800A0681CD046074621462A
:105A0000FAF7E6FEB91907F8068081F801B060E000
:105A100027B103213846FFF759FB01E003209047E7
:105A200004002AD035A1FAF7D3FE2046BDE8F09F46
:105A3000414633A0FAF7C2FE08B16D1C03E0B8F18D
:105A4000200F00D26D1D761C3078B0F1000801D017
:105A50006D1CEDD127B1E91C3846FFF737FB03E099
:105A6000D9F80010E81C8847050006D080F800A08F
:105A70005646681C4FF05C0825E00020D6E71F2939
:105A800007D9222905D05C2903D000F8011B641C2A
:105A900019E000F8018B14F8012B414607460C2A47
:105AA00020D006DC082A1BD0092A21D00A2A06D1D8
:105AB0001AE00D2A1AD0222A0FD05C2A0BD012A18C
:105AC000FAF722FD781D21780029D8D1067080F8D8
:105AD00001B02846AAE7397000E03E70401CF2E7AA
